{
  "contractName": "PatientLedger",
  "abi": [
    {
      "constant": true,
      "inputs": [
        {
          "name": "",
          "type": "uint256"
        }
      ],
      "name": "patientRecords",
      "outputs": [
        {
          "name": "patientId",
          "type": "uint256"
        },
        {
          "name": "name",
          "type": "string"
        },
        {
          "name": "sex",
          "type": "bool"
        },
        {
          "name": "height",
          "type": "uint256"
        },
        {
          "name": "weight",
          "type": "uint256"
        },
        {
          "name": "age",
          "type": "uint256"
        },
        {
          "name": "bloodPressure",
          "type": "uint256"
        }
      ],
      "payable": false,
      "stateMutability": "view",
      "type": "function",
      "signature": "0xd3d188a1"
    },
    {
      "constant": true,
      "inputs": [],
      "name": "infoCount",
      "outputs": [
        {
          "name": "",
          "type": "uint256"
        }
      ],
      "payable": false,
      "stateMutability": "view",
      "type": "function",
      "signature": "0xff296eaa"
    },
    {
      "inputs": [],
      "payable": false,
      "stateMutability": "nonpayable",
      "type": "constructor",
      "signature": "constructor"
    },
    {
      "constant": false,
      "inputs": [
        {
          "name": "_name",
          "type": "string"
        },
        {
          "name": "_sex",
          "type": "bool"
        },
        {
          "name": "_height",
          "type": "uint256"
        },
        {
          "name": "_weight",
          "type": "uint256"
        },
        {
          "name": "_age",
          "type": "uint256"
        },
        {
          "name": "_bloodPressure",
          "type": "uint256"
        }
      ],
      "name": "createPatientRecord",
      "outputs": [],
      "payable": false,
      "stateMutability": "nonpayable",
      "type": "function",
      "signature": "0xca5f442c"
    }
  ],
  "bytecode": "0x60806040526000805534801561001457600080fd5b5060408051808201909152600e81527f42746e67616e61204b626565726100000000000000000000000000000000000060208201526100669060016018602a60056103e864010000000061006b810204565b6101bb565b6000805460019081018083556040805160e08101825282815260208082018c81528b151583850152606083018b9052608083018a905260a0830189905260c0830188905293865284815291909420845181559151805192936100d593908501929190910190610120565b50604082015160028201805460ff1916911515919091179055606082015160038201556080820151600482015560a0820151600582015560c090910151600690910155505050505050565b828054600181600116156101000203166002900490600052602060002090601f016020900481019282601f1061016157805160ff191683800117855561018e565b8280016001018555821561018e579182015b8281111561018e578251825591602001919060010190610173565b5061019a92915061019e565b5090565b6101b891905b8082111561019a57600081556001016101a4565b90565b61046b806101ca6000396000f3fe6080604052600436106100565763ffffffff7c0100000000000000000000000000000000000000000000000000000000600035041663ca5f442c811461005b578063d3d188a114610129578063ff296eaa146101f9575b600080fd5b34801561006757600080fd5b50610127600480360360c081101561007e57600080fd5b81019060208101813564010000000081111561009957600080fd5b8201836020820111156100ab57600080fd5b803590602001918460018302840111640100000000831117156100cd57600080fd5b91908080601f01602080910402602001604051908101604052809392919081815260200183838082843760009201919091525092955050505080351515915060208101359060408101359060608101359060800135610220565b005b34801561013557600080fd5b506101536004803603602081101561014c57600080fd5b50356102d5565b604051808881526020018060200187151515158152602001868152602001858152602001848152602001838152602001828103825288818151815260200191508051906020019080838360005b838110156101b85781810151838201526020016101a0565b50505050905090810190601f1680156101e55780820380516001836020036101000a031916815260200191505b509850505050505050505060405180910390f35b34801561020557600080fd5b5061020e61039e565b60408051918252519081900360200190f35b6000805460019081018083556040805160e08101825282815260208082018c81528b151583850152606083018b9052608083018a905260a0830189905260c08301889052938652848152919094208451815591518051929361028a939085019291909101906103a4565b50604082015160028201805460ff1916911515919091179055606082015160038201556080820151600482015560a0820151600582015560c090910151600690910155505050505050565b600160208181526000928352604092839020805481840180548651600296821615610100026000190190911695909504601f810185900485028601850190965285855290949193929091908301828280156103715780601f1061034657610100808354040283529160200191610371565b820191906000526020600020905b81548152906001019060200180831161035457829003601f168201915b5050506002840154600385015460048601546005870154600690970154959660ff90931695919450925087565b60005481565b828054600181600116156101000203166002900490600052602060002090601f016020900481019282601f106103e557805160ff1916838001178555610412565b82800160010185558215610412579182015b828111156104125782518255916020019190600101906103f7565b5061041e929150610422565b5090565b61043c91905b8082111561041e5760008155600101610428565b9056fea165627a7a723058207dfd78162116c548387e0f5f3e49a9285ab1587786c2bf9e7f7f2ffca74379540029",
  "source": "// SPDX-License-Identifier: MIT\r\npragma solidity >=0.4.22 <0.9.0;\r\n\r\ncontract PatientLedger{\r\n    uint public infoCount = 0;\r\n\r\n    constructor() public {\r\n        createPatientRecord(\"Btngana Kbeera\", true, 24, 42, 5, 1000);\r\n    }\r\n\r\n    struct PatientRecord{\r\n        uint patientId;\r\n        string name;\r\n        bool sex;\r\n        uint height;\r\n        uint weight;\r\n        uint age;\r\n        uint bloodPressure;\r\n    }\r\n\r\n\r\n    mapping (uint => PatientRecord) public patientRecords;\r\n\r\n    function createPatientRecord(string memory _name, \r\n        bool _sex, uint _height, uint _weight,\r\n        uint _age, uint _bloodPressure) public {\r\n        \r\n        infoCount++;\r\n        patientRecords[infoCount] = PatientRecord(infoCount, _name, _sex, _height, \r\n                                        _weight, _age, _bloodPressure);\r\n\r\n        // emit TaskCreated(taskCount, _content, false);\r\n    }\r\n}",
  "sourcePath": "D:/Blockchain/code/eth-todo-list/contracts/PatientLedger.sol",
  "compiler": {
    "name": "solc",
    "version": "0.5.0+commit.1d4f565a.Emscripten.clang"
  },
  "schemaVersion": "3.0.1",
  "updatedAt": "2022-06-03T21:35:23.650Z",
  "devdoc": {
    "methods": {}
  },
  "userdoc": {
    "methods": {}
  }
}