{
  "contractName": "PatientLedger",
  "abi": [
    {
      "constant": true,
      "inputs": [
        {
          "name": "",
          "type": "uint256"
        }
      ],
      "name": "patientRecords",
      "outputs": [
        {
          "name": "patientId",
          "type": "uint256"
        },
        {
          "name": "myPrevRecord",
          "type": "uint256"
        },
        {
          "name": "name_bloodPressure",
          "type": "string"
        },
        {
          "name": "height_pulse",
          "type": "string"
        },
        {
          "name": "weight_glucose",
          "type": "string"
        },
        {
          "name": "age",
          "type": "string"
        },
        {
          "name": "myHash",
          "type": "string"
        }
      ],
      "payable": false,
      "stateMutability": "view",
      "type": "function",
      "signature": "0xd3d188a1"
    },
    {
      "constant": true,
      "inputs": [],
      "name": "infoCount",
      "outputs": [
        {
          "name": "",
          "type": "uint256"
        }
      ],
      "payable": false,
      "stateMutability": "view",
      "type": "function",
      "signature": "0xff296eaa"
    },
    {
      "inputs": [],
      "payable": false,
      "stateMutability": "nonpayable",
      "type": "constructor",
      "signature": "constructor"
    },
    {
      "constant": false,
      "inputs": [
        {
          "name": "_patientId",
          "type": "uint256"
        },
        {
          "name": "_myPrevRecord",
          "type": "uint256"
        },
        {
          "name": "_name_bloodPressure",
          "type": "string"
        },
        {
          "name": "_height_pulse",
          "type": "string"
        },
        {
          "name": "_weight_glucose",
          "type": "string"
        },
        {
          "name": "_age",
          "type": "string"
        },
        {
          "name": "_myHash",
          "type": "string"
        }
      ],
      "name": "createRecord",
      "outputs": [],
      "payable": false,
      "stateMutability": "nonpayable",
      "type": "function",
      "signature": "0x4bca5f50"
    }
  ],
  "bytecode": "0x60806040526000805534801561001457600080fd5b50610a64806100246000396000f3fe6080604052600436106100565763ffffffff7c01000000000000000000000000000000000000000000000000000000006000350416634bca5f50811461005b578063d3d188a114610338578063ff296eaa14610580575b600080fd5b34801561006757600080fd5b50610336600480360360e081101561007e57600080fd5b8135916020810135918101906060810160408201356401000000008111156100a557600080fd5b8201836020820111156100b757600080fd5b803590602001918460018302840111640100000000831117156100d957600080fd5b91908080601f016020809104026020016040519081016040528093929190818152602001838380828437600092019190915250929594936020810193503591505064010000000081111561012c57600080fd5b82018360208201111561013e57600080fd5b8035906020019184600183028401116401000000008311171561016057600080fd5b91908080601f01602080910402602001604051908101604052809392919081815260200183838082843760009201919091525092959493602081019350359150506401000000008111156101b357600080fd5b8201836020820111156101c557600080fd5b803590602001918460018302840111640100000000831117156101e757600080fd5b91908080601f016020809104026020016040519081016040528093929190818152602001838380828437600092019190915250929594936020810193503591505064010000000081111561023a57600080fd5b82018360208201111561024c57600080fd5b8035906020019184600183028401116401000000008311171561026e57600080fd5b91908080601f01602080910402602001604051908101604052809392919081815260200183838082843760009201919091525092959493602081019350359150506401000000008111156102c157600080fd5b8201836020820111156102d357600080fd5b803590602001918460018302840111640100000000831117156102f557600080fd5b91908080601f0160208091040260200160405190810160405280939291908181526020018383808284376000920191909152509295506105a7945050505050565b005b34801561034457600080fd5b506103626004803603602081101561035b57600080fd5b5035610695565b60405180888152602001878152602001806020018060200180602001806020018060200186810386528b818151815260200191508051906020019080838360005b838110156103bb5781810151838201526020016103a3565b50505050905090810190601f1680156103e85780820380516001836020036101000a031916815260200191505b5086810385528a5181528a516020918201918c019080838360005b8381101561041b578181015183820152602001610403565b50505050905090810190601f1680156104485780820380516001836020036101000a031916815260200191505b5086810384528951815289516020918201918b019080838360005b8381101561047b578181015183820152602001610463565b50505050905090810190601f1680156104a85780820380516001836020036101000a031916815260200191505b5086810383528851815288516020918201918a019080838360005b838110156104db5781810151838201526020016104c3565b50505050905090810190601f1680156105085780820380516001836020036101000a031916815260200191505b50868103825287518152875160209182019189019080838360005b8381101561053b578181015183820152602001610523565b50505050905090810190601f1680156105685780820380516001836020036101000a031916815260200191505b509c5050505050505050505050505060405180910390f35b34801561058c57600080fd5b50610595610997565b60408051918252519081900360200190f35b6000805460019081018083556040805160e0810182528b815260208082018c81528284018c8152606084018c9052608084018b905260a084018a905260c0840189905294875285825292909520815181559151938201939093559051805192939192610619926002850192019061099d565b506060820151805161063591600384019160209091019061099d565b506080820151805161065191600484019160209091019061099d565b5060a0820151805161066d91600584019160209091019061099d565b5060c0820151805161068991600684019160209091019061099d565b50505050505050505050565b6001602052806000526040600020600091509050806000015490806001015490806002018054600181600116156101000203166002900480601f01602080910402602001604051908101604052809291908181526020018280546001816001161561010002031660029004801561074d5780601f106107225761010080835404028352916020019161074d565b820191906000526020600020905b81548152906001019060200180831161073057829003601f168201915b5050505060038301805460408051602060026001851615610100026000190190941693909304601f81018490048402820184019092528181529495949350908301828280156107dd5780601f106107b2576101008083540402835291602001916107dd565b820191906000526020600020905b8154815290600101906020018083116107c057829003601f168201915b5050505060048301805460408051602060026001851615610100026000190190941693909304601f810184900484028201840190925281815294959493509083018282801561086d5780601f106108425761010080835404028352916020019161086d565b820191906000526020600020905b81548152906001019060200180831161085057829003601f168201915b5050505060058301805460408051602060026001851615610100026000190190941693909304601f81018490048402820184019092528181529495949350908301828280156108fd5780601f106108d2576101008083540402835291602001916108fd565b820191906000526020600020905b8154815290600101906020018083116108e057829003601f168201915b5050505060068301805460408051602060026001851615610100026000190190941693909304601f810184900484028201840190925281815294959493509083018282801561098d5780601f106109625761010080835404028352916020019161098d565b820191906000526020600020905b81548152906001019060200180831161097057829003601f168201915b5050505050905087565b60005481565b828054600181600116156101000203166002900490600052602060002090601f016020900481019282601f106109de57805160ff1916838001178555610a0b565b82800160010185558215610a0b579182015b82811115610a0b5782518255916020019190600101906109f0565b50610a17929150610a1b565b5090565b610a3591905b80821115610a175760008155600101610a21565b9056fea165627a7a72305820449af76fa123ea261eb523390ae652ec1fde6948a7a6c05f40906dc7d0d2106a0029",
  "source": "// SPDX-License-Identifier: MIT\r\npragma solidity >=0.4.22 <0.9.0;\r\n\r\ncontract PatientLedger{\r\n    uint public infoCount = 0;\r\n\r\n    constructor() public {\r\n        // createPatientRecord(2,3,\"Btngana Kbeera\", \"true\", \"24\", \"42\", \"5\", \"1000\");\r\n    }\r\n\r\n    struct PatientRecord{\r\n        uint patientId;\r\n        uint myPrevRecord;\r\n        string name_bloodPressure;\r\n        string height_pulse;\r\n        string weight_glucose;\r\n        string age;\r\n        string myHash;\r\n    }\r\n\r\n\r\n    mapping (uint => PatientRecord) public patientRecords;\r\n\r\n    // function createPatientRecord(uint _patientId, uint _myPrevRecord, \r\n    // string memory _name, string memory _height, \r\n    // string memory _weight, string memory _age, string memory _bloodPressure\r\n    // , string memory _pulse, string memory _glucose) \r\n    // public {\r\n        \r\n    //     infoCount++;\r\n    //     patientRecords[infoCount] = PatientRecord(_patientId, _myPrevRecord, \r\n    //     _name, _height, _weight, _age\r\n    //     , _bloodPressure, _pulse, _glucose);\r\n\r\n    //     // emit TaskCreated(taskCount, _content, false);\r\n    // }\r\n\r\n    function createRecord(uint _patientId, uint _myPrevRecord, \r\n    string memory _name_bloodPressure, string memory _height_pulse,\r\n    string memory _weight_glucose, string memory _age, string memory _myHash)  \r\n    public {\r\n        \r\n        infoCount++;\r\n        patientRecords[infoCount] = PatientRecord(_patientId, _myPrevRecord, \r\n        _name_bloodPressure, _height_pulse, _weight_glucose, _age, _myHash);\r\n\r\n        // emit TaskCreated(taskCount, _content, false);\r\n    }\r\n\r\n}",
  "sourcePath": "D:/Blockchain/code/eth-todo-list/contracts/PatientLedger.sol",
  "compiler": {
    "name": "solc",
    "version": "0.5.0+commit.1d4f565a.Emscripten.clang"
  },
  "schemaVersion": "3.0.1",
  "updatedAt": "2022-06-14T08:32:10.291Z",
  "devdoc": {
    "methods": {}
  },
  "userdoc": {
    "methods": {}
  }
}