{
  "contractName": "PatientLedger",
  "abi": [
    {
      "constant": true,
      "inputs": [
        {
          "name": "",
          "type": "uint256"
        }
      ],
      "name": "patientRecords",
      "outputs": [
        {
          "name": "patientId",
          "type": "uint256"
        },
        {
          "name": "myPrevRecord",
          "type": "uint256"
        },
        {
          "name": "name_bloodPressure",
          "type": "string"
        },
        {
          "name": "height_pulse",
          "type": "string"
        },
        {
          "name": "weight_glucose",
          "type": "string"
        },
        {
          "name": "age",
          "type": "string"
        }
      ],
      "payable": false,
      "stateMutability": "view",
      "type": "function",
      "signature": "0xd3d188a1"
    },
    {
      "constant": true,
      "inputs": [],
      "name": "infoCount",
      "outputs": [
        {
          "name": "",
          "type": "uint256"
        }
      ],
      "payable": false,
      "stateMutability": "view",
      "type": "function",
      "signature": "0xff296eaa"
    },
    {
      "inputs": [],
      "payable": false,
      "stateMutability": "nonpayable",
      "type": "constructor",
      "signature": "constructor"
    },
    {
      "constant": false,
      "inputs": [
        {
          "name": "_patientId",
          "type": "uint256"
        },
        {
          "name": "_myPrevRecord",
          "type": "uint256"
        },
        {
          "name": "_name_bloodPressure",
          "type": "string"
        },
        {
          "name": "_height_pulse",
          "type": "string"
        },
        {
          "name": "_weight_glucose",
          "type": "string"
        },
        {
          "name": "_age",
          "type": "string"
        }
      ],
      "name": "createRecord",
      "outputs": [],
      "payable": false,
      "stateMutability": "nonpayable",
      "type": "function",
      "signature": "0x2fc9fc30"
    }
  ],
  "bytecode": "0x60806040526000805534801561001457600080fd5b506108c3806100246000396000f3fe6080604052600436106100565763ffffffff7c01000000000000000000000000000000000000000000000000000000006000350416632fc9fc30811461005b578063d3d188a1146102b1578063ff296eaa14610493575b600080fd5b34801561006757600080fd5b506102af600480360360c081101561007e57600080fd5b8135916020810135918101906060810160408201356401000000008111156100a557600080fd5b8201836020820111156100b757600080fd5b803590602001918460018302840111640100000000831117156100d957600080fd5b91908080601f016020809104026020016040519081016040528093929190818152602001838380828437600092019190915250929594936020810193503591505064010000000081111561012c57600080fd5b82018360208201111561013e57600080fd5b8035906020019184600183028401116401000000008311171561016057600080fd5b91908080601f01602080910402602001604051908101604052809392919081815260200183838082843760009201919091525092959493602081019350359150506401000000008111156101b357600080fd5b8201836020820111156101c557600080fd5b803590602001918460018302840111640100000000831117156101e757600080fd5b91908080601f016020809104026020016040519081016040528093929190818152602001838380828437600092019190915250929594936020810193503591505064010000000081111561023a57600080fd5b82018360208201111561024c57600080fd5b8035906020019184600183028401116401000000008311171561026e57600080fd5b91908080601f0160208091040260200160405190810160405280939291908181526020018383808284376000920191909152509295506104ba945050505050565b005b3480156102bd57600080fd5b506102db600480360360208110156102d457600080fd5b5035610584565b6040518087815260200186815260200180602001806020018060200180602001858103855289818151815260200191508051906020019080838360005b83811015610330578181015183820152602001610318565b50505050905090810190601f16801561035d5780820380516001836020036101000a031916815260200191505b5085810384528851815288516020918201918a019080838360005b83811015610390578181015183820152602001610378565b50505050905090810190601f1680156103bd5780820380516001836020036101000a031916815260200191505b50858103835287518152875160209182019189019080838360005b838110156103f05781810151838201526020016103d8565b50505050905090810190601f16801561041d5780820380516001836020036101000a031916815260200191505b50858103825286518152865160209182019188019080838360005b83811015610450578181015183820152602001610438565b50505050905090810190601f16801561047d5780820380516001836020036101000a031916815260200191505b509a505050505050505050505060405180910390f35b34801561049f57600080fd5b506104a86107f6565b60408051918252519081900360200190f35b6000805460019081018083556040805160c0810182528a815260208082018b81528284018b8152606084018b9052608084018a905260a084018990529487528582529290952081518155915193820193909355905180519293919261052592600285019201906107fc565b50606082015180516105419160038401916020909101906107fc565b506080820151805161055d9160048401916020909101906107fc565b5060a082015180516105799160058401916020909101906107fc565b505050505050505050565b6001602052806000526040600020600091509050806000015490806001015490806002018054600181600116156101000203166002900480601f01602080910402602001604051908101604052809291908181526020018280546001816001161561010002031660029004801561063c5780601f106106115761010080835404028352916020019161063c565b820191906000526020600020905b81548152906001019060200180831161061f57829003601f168201915b5050505060038301805460408051602060026001851615610100026000190190941693909304601f81018490048402820184019092528181529495949350908301828280156106cc5780601f106106a1576101008083540402835291602001916106cc565b820191906000526020600020905b8154815290600101906020018083116106af57829003601f168201915b5050505060048301805460408051602060026001851615610100026000190190941693909304601f810184900484028201840190925281815294959493509083018282801561075c5780601f106107315761010080835404028352916020019161075c565b820191906000526020600020905b81548152906001019060200180831161073f57829003601f168201915b5050505060058301805460408051602060026001851615610100026000190190941693909304601f81018490048402820184019092528181529495949350908301828280156107ec5780601f106107c1576101008083540402835291602001916107ec565b820191906000526020600020905b8154815290600101906020018083116107cf57829003601f168201915b5050505050905086565b60005481565b828054600181600116156101000203166002900490600052602060002090601f016020900481019282601f1061083d57805160ff191683800117855561086a565b8280016001018555821561086a579182015b8281111561086a57825182559160200191906001019061084f565b5061087692915061087a565b5090565b61089491905b808211156108765760008155600101610880565b9056fea165627a7a72305820f6fa7716ae2414e7ae2b24b1d02ab48d601381a0e796f0e4507d28b90d2ae4750029",
  "source": "// SPDX-License-Identifier: MIT\r\npragma solidity >=0.4.22 <0.9.0;\r\n\r\ncontract PatientLedger{\r\n    uint public infoCount = 0;\r\n\r\n    constructor() public {\r\n        // createPatientRecord(2,3,\"Btngana Kbeera\", \"true\", \"24\", \"42\", \"5\", \"1000\");\r\n    }\r\n\r\n    struct PatientRecord{\r\n        uint patientId;\r\n        uint myPrevRecord;\r\n        string name_bloodPressure;\r\n        string height_pulse;\r\n        string weight_glucose;\r\n        string age;\r\n    }\r\n\r\n\r\n    mapping (uint => PatientRecord) public patientRecords;\r\n\r\n    // function createPatientRecord(uint _patientId, uint _myPrevRecord, \r\n    // string memory _name, string memory _height, \r\n    // string memory _weight, string memory _age, string memory _bloodPressure\r\n    // , string memory _pulse, string memory _glucose) \r\n    // public {\r\n        \r\n    //     infoCount++;\r\n    //     patientRecords[infoCount] = PatientRecord(_patientId, _myPrevRecord, \r\n    //     _name, _height, _weight, _age\r\n    //     , _bloodPressure, _pulse, _glucose);\r\n\r\n    //     // emit TaskCreated(taskCount, _content, false);\r\n    // }\r\n\r\n    function createRecord(uint _patientId, uint _myPrevRecord, \r\n    string memory _name_bloodPressure, string memory _height_pulse,\r\n    string memory _weight_glucose, string memory _age)  \r\n    public {\r\n        \r\n        infoCount++;\r\n        patientRecords[infoCount] = PatientRecord(_patientId, _myPrevRecord, \r\n        _name_bloodPressure, _height_pulse, _weight_glucose, _age);\r\n\r\n        // emit TaskCreated(taskCount, _content, false);\r\n    }\r\n\r\n}",
  "sourcePath": "D:/Blockchain/code/eth-todo-list/contracts/PatientLedger.sol",
  "compiler": {
    "name": "solc",
    "version": "0.5.0+commit.1d4f565a.Emscripten.clang"
  },
  "schemaVersion": "3.0.1",
  "updatedAt": "2022-06-07T15:26:27.998Z",
  "devdoc": {
    "methods": {}
  },
  "userdoc": {
    "methods": {}
  }
}