{
  "contractName": "PatientLedger",
  "abi": [
    {
      "constant": true,
      "inputs": [
        {
          "name": "",
          "type": "uint256"
        }
      ],
      "name": "patientRecords",
      "outputs": [
        {
          "name": "patientId",
          "type": "uint256"
        },
        {
          "name": "myPrevRecord",
          "type": "uint256"
        },
        {
          "name": "name",
          "type": "string"
        },
        {
          "name": "sex",
          "type": "string"
        },
        {
          "name": "height",
          "type": "string"
        },
        {
          "name": "weight",
          "type": "string"
        },
        {
          "name": "age",
          "type": "string"
        },
        {
          "name": "bloodPressure",
          "type": "string"
        }
      ],
      "payable": false,
      "stateMutability": "view",
      "type": "function",
      "signature": "0xd3d188a1"
    },
    {
      "constant": true,
      "inputs": [],
      "name": "infoCount",
      "outputs": [
        {
          "name": "",
          "type": "uint256"
        }
      ],
      "payable": false,
      "stateMutability": "view",
      "type": "function",
      "signature": "0xff296eaa"
    },
    {
      "inputs": [],
      "payable": false,
      "stateMutability": "nonpayable",
      "type": "constructor",
      "signature": "constructor"
    },
    {
      "constant": false,
      "inputs": [
        {
          "name": "_patientId",
          "type": "uint256"
        },
        {
          "name": "_myPrevRecord",
          "type": "uint256"
        },
        {
          "name": "_name",
          "type": "string"
        },
        {
          "name": "_sex",
          "type": "string"
        },
        {
          "name": "_height",
          "type": "string"
        },
        {
          "name": "_weight",
          "type": "string"
        },
        {
          "name": "_age",
          "type": "string"
        },
        {
          "name": "_bloodPressure",
          "type": "string"
        }
      ],
      "name": "createPatientRecord",
      "outputs": [],
      "payable": false,
      "stateMutability": "nonpayable",
      "type": "function",
      "signature": "0x9ad4b6eb"
    }
  ],
  "bytecode": "0x6080604052600080553480156200001557600080fd5b5062000177600260036040805190810160405280600e81526020017f42746e67616e61204b62656572610000000000000000000000000000000000008152506040805190810160405280600481526020017f74727565000000000000000000000000000000000000000000000000000000008152506040805190810160405280600281526020017f32340000000000000000000000000000000000000000000000000000000000008152506040805190810160405280600281526020017f34320000000000000000000000000000000000000000000000000000000000008152506040805190810160405280600181526020017f35000000000000000000000000000000000000000000000000000000000000008152506040805190810160405280600481526020017f31303030000000000000000000000000000000000000000000000000000000008152506200017d640100000000026401000000009004565b62000341565b60008054600190810180835560408051610100810182528c815260208082018d81528284018d8152606084018d9052608084018c905260a084018b905260c084018a905260e0840189905294875285825292909520815181559151938201939093559051805192939192620001f992600285019201906200029c565b5060608201518051620002179160038401916020909101906200029c565b5060808201518051620002359160048401916020909101906200029c565b5060a08201518051620002539160058401916020909101906200029c565b5060c08201518051620002719160068401916020909101906200029c565b5060e082015180516200028f9160078401916020909101906200029c565b5050505050505050505050565b828054600181600116156101000203166002900490600052602060002090601f016020900481019282601f10620002df57805160ff19168380011785556200030f565b828001600101855582156200030f579182015b828111156200030f578251825591602001919060010190620002f2565b506200031d92915062000321565b5090565b6200033e91905b808211156200031d576000815560010162000328565b90565b610c0780620003516000396000f3fe6080604052600436106100565763ffffffff7c01000000000000000000000000000000000000000000000000000000006000350416639ad4b6eb811461005b578063d3d188a1146103c0578063ff296eaa1461066e575b600080fd5b34801561006757600080fd5b506103be600480360361010081101561007f57600080fd5b8135916020810135918101906060810160408201356401000000008111156100a657600080fd5b8201836020820111156100b857600080fd5b803590602001918460018302840111640100000000831117156100da57600080fd5b91908080601f016020809104026020016040519081016040528093929190818152602001838380828437600092019190915250929594936020810193503591505064010000000081111561012d57600080fd5b82018360208201111561013f57600080fd5b8035906020019184600183028401116401000000008311171561016157600080fd5b91908080601f01602080910402602001604051908101604052809392919081815260200183838082843760009201919091525092959493602081019350359150506401000000008111156101b457600080fd5b8201836020820111156101c657600080fd5b803590602001918460018302840111640100000000831117156101e857600080fd5b91908080601f016020809104026020016040519081016040528093929190818152602001838380828437600092019190915250929594936020810193503591505064010000000081111561023b57600080fd5b82018360208201111561024d57600080fd5b8035906020019184600183028401116401000000008311171561026f57600080fd5b91908080601f01602080910402602001604051908101604052809392919081815260200183838082843760009201919091525092959493602081019350359150506401000000008111156102c257600080fd5b8201836020820111156102d457600080fd5b803590602001918460018302840111640100000000831117156102f657600080fd5b91908080601f016020809104026020016040519081016040528093929190818152602001838380828437600092019190915250929594936020810193503591505064010000000081111561034957600080fd5b82018360208201111561035b57600080fd5b8035906020019184600183028401116401000000008311171561037d57600080fd5b91908080601f016020809104026020016040519081016040528093929190818152602001838380828437600092019190915250929550610695945050505050565b005b3480156103cc57600080fd5b506103ea600480360360208110156103e357600080fd5b50356107a8565b6040518089815260200188815260200180602001806020018060200180602001806020018060200187810387528d818151815260200191508051906020019080838360005b8381101561044757818101518382015260200161042f565b50505050905090810190601f1680156104745780820380516001836020036101000a031916815260200191505b5087810386528c5181528c516020918201918e019080838360005b838110156104a757818101518382015260200161048f565b50505050905090810190601f1680156104d45780820380516001836020036101000a031916815260200191505b5087810385528b5181528b516020918201918d019080838360005b838110156105075781810151838201526020016104ef565b50505050905090810190601f1680156105345780820380516001836020036101000a031916815260200191505b5087810384528a5181528a516020918201918c019080838360005b8381101561056757818101518382015260200161054f565b50505050905090810190601f1680156105945780820380516001836020036101000a031916815260200191505b5087810383528951815289516020918201918b019080838360005b838110156105c75781810151838201526020016105af565b50505050905090810190601f1680156105f45780820380516001836020036101000a031916815260200191505b5087810382528851815288516020918201918a019080838360005b8381101561062757818101518382015260200161060f565b50505050905090810190601f1680156106545780820380516001836020036101000a031916815260200191505b509e50505050505050505050505050505060405180910390f35b34801561067a57600080fd5b50610683610b3a565b60408051918252519081900360200190f35b60008054600190810180835560408051610100810182528c815260208082018d81528284018d8152606084018d9052608084018c905260a084018b905260c084018a905260e084018990529487528582529290952081518155915193820193909355905180519293919261070f9260028501920190610b40565b506060820151805161072b916003840191602090910190610b40565b5060808201518051610747916004840191602090910190610b40565b5060a08201518051610763916005840191602090910190610b40565b5060c0820151805161077f916006840191602090910190610b40565b5060e0820151805161079b916007840191602090910190610b40565b5050505050505050505050565b6001602052806000526040600020600091509050806000015490806001015490806002018054600181600116156101000203166002900480601f0160208091040260200160405190810160405280929190818152602001828054600181600116156101000203166002900480156108605780601f1061083557610100808354040283529160200191610860565b820191906000526020600020905b81548152906001019060200180831161084357829003601f168201915b5050505060038301805460408051602060026001851615610100026000190190941693909304601f81018490048402820184019092528181529495949350908301828280156108f05780601f106108c5576101008083540402835291602001916108f0565b820191906000526020600020905b8154815290600101906020018083116108d357829003601f168201915b5050505060048301805460408051602060026001851615610100026000190190941693909304601f81018490048402820184019092528181529495949350908301828280156109805780601f1061095557610100808354040283529160200191610980565b820191906000526020600020905b81548152906001019060200180831161096357829003601f168201915b5050505060058301805460408051602060026001851615610100026000190190941693909304601f8101849004840282018401909252818152949594935090830182828015610a105780601f106109e557610100808354040283529160200191610a10565b820191906000526020600020905b8154815290600101906020018083116109f357829003601f168201915b5050505060068301805460408051602060026001851615610100026000190190941693909304601f8101849004840282018401909252818152949594935090830182828015610aa05780601f10610a7557610100808354040283529160200191610aa0565b820191906000526020600020905b815481529060010190602001808311610a8357829003601f168201915b5050505060078301805460408051602060026001851615610100026000190190941693909304601f8101849004840282018401909252818152949594935090830182828015610b305780601f10610b0557610100808354040283529160200191610b30565b820191906000526020600020905b815481529060010190602001808311610b1357829003601f168201915b5050505050905088565b60005481565b828054600181600116156101000203166002900490600052602060002090601f016020900481019282601f10610b8157805160ff1916838001178555610bae565b82800160010185558215610bae579182015b82811115610bae578251825591602001919060010190610b93565b50610bba929150610bbe565b5090565b610bd891905b80821115610bba5760008155600101610bc4565b9056fea165627a7a7230582019847f072c828d12048d56e04c1258eaf8fecbb3677b951dbd00fbbac32693f80029",
  "source": "// SPDX-License-Identifier: MIT\r\npragma solidity >=0.4.22 <0.9.0;\r\n\r\ncontract PatientLedger{\r\n    uint public infoCount = 0;\r\n\r\n    constructor() public {\r\n        createPatientRecord(2,3,\"Btngana Kbeera\", \"true\", \"24\", \"42\", \"5\", \"1000\");\r\n    }\r\n\r\n    struct PatientRecord{\r\n        uint patientId;\r\n        uint myPrevRecord;\r\n        string name;\r\n        string sex;\r\n        string height;\r\n        string weight;\r\n        string age;\r\n        string bloodPressure;\r\n    }\r\n\r\n\r\n    mapping (uint => PatientRecord) public patientRecords;\r\n\r\n    function createPatientRecord(uint _patientId, uint _myPrevRecord, \r\n    string memory _name, string memory _sex, string memory _height, \r\n    string memory _weight, string memory _age, string memory _bloodPressure) \r\n    public {\r\n        \r\n        infoCount++;\r\n        patientRecords[infoCount] = PatientRecord(_patientId, _myPrevRecord, \r\n        _name, _sex, _height, _weight, _age, _bloodPressure);\r\n\r\n        // emit TaskCreated(taskCount, _content, false);\r\n    }\r\n}",
  "sourcePath": "D:/Blockchain/code/eth-todo-list/contracts/PatientLedger.sol",
  "compiler": {
    "name": "solc",
    "version": "0.5.0+commit.1d4f565a.Emscripten.clang"
  },
  "schemaVersion": "3.0.1",
  "updatedAt": "2022-06-06T13:32:41.715Z",
  "devdoc": {
    "methods": {}
  },
  "userdoc": {
    "methods": {}
  }
}